{
  "address": "0xB79Ce2e12B8C7Ab70A3F79618710CcdAE77c107f",
  "abi": [
    {
      "inputs": [
        {
          "internalType": "address",
          "name": "ownerInicial",
          "type": "address"
        }
      ],
      "stateMutability": "nonpayable",
      "type": "constructor"
    },
    {
      "inputs": [],
      "name": "OpcionInvalida",
      "type": "error"
    },
    {
      "inputs": [
        {
          "internalType": "address",
          "name": "owner",
          "type": "address"
        }
      ],
      "name": "OwnableInvalidOwner",
      "type": "error"
    },
    {
      "inputs": [
        {
          "internalType": "address",
          "name": "account",
          "type": "address"
        }
      ],
      "name": "OwnableUnauthorizedAccount",
      "type": "error"
    },
    {
      "inputs": [],
      "name": "ParametrosInvalidos",
      "type": "error"
    },
    {
      "inputs": [],
      "name": "VotacionCerrada",
      "type": "error"
    },
    {
      "inputs": [],
      "name": "VotacionNoExiste",
      "type": "error"
    },
    {
      "inputs": [],
      "name": "YaVotaste",
      "type": "error"
    },
    {
      "anonymous": false,
      "inputs": [
        {
          "indexed": true,
          "internalType": "address",
          "name": "previousOwner",
          "type": "address"
        },
        {
          "indexed": true,
          "internalType": "address",
          "name": "newOwner",
          "type": "address"
        }
      ],
      "name": "OwnershipTransferred",
      "type": "event"
    },
    {
      "anonymous": false,
      "inputs": [
        {
          "indexed": true,
          "internalType": "uint256",
          "name": "idVotacion",
          "type": "uint256"
        },
        {
          "indexed": true,
          "internalType": "address",
          "name": "creador",
          "type": "address"
        },
        {
          "indexed": false,
          "internalType": "string",
          "name": "titulo",
          "type": "string"
        },
        {
          "indexed": false,
          "internalType": "uint256",
          "name": "fechaFin",
          "type": "uint256"
        },
        {
          "indexed": false,
          "internalType": "uint256",
          "name": "cantidadOpciones",
          "type": "uint256"
        }
      ],
      "name": "VotacionCreada",
      "type": "event"
    },
    {
      "anonymous": false,
      "inputs": [
        {
          "indexed": true,
          "internalType": "uint256",
          "name": "idVotacion",
          "type": "uint256"
        },
        {
          "indexed": true,
          "internalType": "address",
          "name": "votante",
          "type": "address"
        },
        {
          "indexed": false,
          "internalType": "uint256",
          "name": "idOpcion",
          "type": "uint256"
        }
      ],
      "name": "VotoEmitido",
      "type": "event"
    },
    {
      "inputs": [],
      "name": "bloqueDespliegue",
      "outputs": [
        {
          "internalType": "uint64",
          "name": "",
          "type": "uint64"
        }
      ],
      "stateMutability": "view",
      "type": "function"
    },
    {
      "inputs": [],
      "name": "contadorVotaciones",
      "outputs": [
        {
          "internalType": "uint256",
          "name": "",
          "type": "uint256"
        }
      ],
      "stateMutability": "view",
      "type": "function"
    },
    {
      "inputs": [
        {
          "internalType": "string",
          "name": "titulo",
          "type": "string"
        },
        {
          "internalType": "string[]",
          "name": "opciones",
          "type": "string[]"
        },
        {
          "internalType": "uint256",
          "name": "duracionSegundos",
          "type": "uint256"
        }
      ],
      "name": "crearVotacion",
      "outputs": [],
      "stateMutability": "nonpayable",
      "type": "function"
    },
    {
      "inputs": [
        {
          "internalType": "uint256",
          "name": "idVotacion",
          "type": "uint256"
        }
      ],
      "name": "obtenerOpciones",
      "outputs": [
        {
          "internalType": "string[]",
          "name": "",
          "type": "string[]"
        }
      ],
      "stateMutability": "view",
      "type": "function"
    },
    {
      "inputs": [
        {
          "internalType": "uint256",
          "name": "idVotacion",
          "type": "uint256"
        }
      ],
      "name": "obtenerVotacion",
      "outputs": [
        {
          "internalType": "string",
          "name": "titulo",
          "type": "string"
        },
        {
          "internalType": "address",
          "name": "creador",
          "type": "address"
        },
        {
          "internalType": "uint256",
          "name": "fechaFin",
          "type": "uint256"
        },
        {
          "internalType": "uint256",
          "name": "cantidadOpciones",
          "type": "uint256"
        },
        {
          "internalType": "bool",
          "name": "activa",
          "type": "bool"
        }
      ],
      "stateMutability": "view",
      "type": "function"
    },
    {
      "inputs": [
        {
          "internalType": "uint256",
          "name": "idVotacion",
          "type": "uint256"
        },
        {
          "internalType": "uint256",
          "name": "opcion",
          "type": "uint256"
        }
      ],
      "name": "obtenerVotos",
      "outputs": [
        {
          "internalType": "uint256",
          "name": "",
          "type": "uint256"
        }
      ],
      "stateMutability": "view",
      "type": "function"
    },
    {
      "inputs": [],
      "name": "owner",
      "outputs": [
        {
          "internalType": "address",
          "name": "",
          "type": "address"
        }
      ],
      "stateMutability": "view",
      "type": "function"
    },
    {
      "inputs": [],
      "name": "renounceOwnership",
      "outputs": [],
      "stateMutability": "nonpayable",
      "type": "function"
    },
    {
      "inputs": [
        {
          "internalType": "address",
          "name": "newOwner",
          "type": "address"
        }
      ],
      "name": "transferOwnership",
      "outputs": [],
      "stateMutability": "nonpayable",
      "type": "function"
    },
    {
      "inputs": [
        {
          "internalType": "uint256",
          "name": "idVotacion",
          "type": "uint256"
        },
        {
          "internalType": "uint256",
          "name": "idOpcion",
          "type": "uint256"
        }
      ],
      "name": "votar",
      "outputs": [],
      "stateMutability": "nonpayable",
      "type": "function"
    },
    {
      "inputs": [
        {
          "internalType": "uint256",
          "name": "idVotacion",
          "type": "uint256"
        },
        {
          "internalType": "address",
          "name": "cuenta",
          "type": "address"
        }
      ],
      "name": "yaVoto",
      "outputs": [
        {
          "internalType": "bool",
          "name": "",
          "type": "bool"
        }
      ],
      "stateMutability": "view",
      "type": "function"
    }
  ],
  "transactionHash": "0xee793c99a5a40bd3c57aa8cd7e1db0bda63091c209a17f2b6e9ce954404ea604",
  "args": [
    "0x561Bb0cac6c5e3768A0a9D7026D499F0914dEB1D"
  ],
  "numDeployments": 1,
  "solcInputHash": "de60962fc86f4ffd6f9accbab946938c",
  "bytecode": "0x60a060405234801561001057600080fd5b50604051610eab380380610eab83398101604081905261002f916100cb565b806001600160a01b03811661005e57604051631e4fbdf760e01b81526000600482015260240160405180910390fd5b6100678161007b565b50506001600160401b0343166080526100fb565b600080546001600160a01b038381166001600160a01b0319831681178455604051919092169283917f8be0079c531659141344cd1fd0a4f28419497f9722a3daafe3b4186f6b6457e09190a35050565b6000602082840312156100dd57600080fd5b81516001600160a01b03811681146100f457600080fd5b9392505050565b608051610d9561011660003960006101940152610d956000f3fe608060405234801561001057600080fd5b50600436106100a95760003560e01c80635cf4674a116100715780635cf4674a146101405780636059620b14610149578063715018a61461016c5780638da5cb5b14610174578063dc48c7591461018f578063f2fde38b146101cf57600080fd5b8063056a6ed9146100ae5780630ddf790c146100d457806321ff2eb7146100e957806339010f71146101095780634fa5a16f1461012d575b600080fd5b6100c16100bc3660046108bd565b6101e2565b6040519081526020015b60405180910390f35b6100e76100e23660046108df565b610268565b005b6100fc6100f73660046109ac565b61041b565b6040516100cb9190610a0b565b61011c6101173660046109ac565b610537565b6040516100cb959493929190610a6d565b6100e761013b3660046108bd565b61063e565b6100c160015481565b61015c610157366004610acb565b610785565b60405190151581526020016100cb565b6100e76107e9565b6000546040516001600160a01b0390911681526020016100cb565b6101b67f000000000000000000000000000000000000000000000000000000000000000081565b60405167ffffffffffffffff90911681526020016100cb565b6100e76101dd366004610af7565b6107fd565b60008281526002602052604081208054600160d81b900460ff1661021957604051636973693960e01b815260040160405180910390fd5b8054600160c81b900461ffff1683106102455760405163248533d760e11b815260040160405180910390fd5b505060008281526004602090815260408083208484529091529020545b92915050565b610270610840565b8184158061027e5750600281105b80610287575081155b156102a557604051635b83d43b60e11b815260040160405180910390fd5b61ffff8111156102c857604051635b83d43b60e11b815260040160405180910390fd5b60018054906102d8908290610b2f565b60015560006102e78442610b2f565b60008381526002602052604090208054600160d81b6001600160c81b03199091163364ffffffffff60a01b191617600160a01b64ffffffffff8516021762ffffff60c81b1916600160c81b61ffff88160260ff60d81b19161717815590915060018101610355898b83610be1565b506000838152600360205260408120905b858110156103c6578189898381811061038157610381610ca2565b90506020028101906103939190610cb8565b825460018101845560009384526020909320909201916103b39183610be1565b50806103be81610d06565b915050610366565b50336001600160a01b0316847f7fcfda21dda863660d5f97879bfc2cb21a02cab4d5f1f550d7370a3b201b90798c8c878a6040516104079493929190610d1f565b60405180910390a350505050505050505050565b6000818152600260205260409020805460609190600160d81b900460ff1661045657604051636973693960e01b815260040160405180910390fd5b600083815260036020908152604080832080548251818502810185019093528083529193909284015b8282101561052b57838290600052602060002001805461049e90610b58565b80601f01602080910402602001604051908101604052809291908181526020018280546104ca90610b58565b80156105175780601f106104ec57610100808354040283529160200191610517565b820191906000526020600020905b8154815290600101906020018083116104fa57829003601f168201915b50505050508152602001906001019061047f565b50505050915050919050565b6000818152600260205260408120805460609291829182918291600160d81b900460ff1661057857604051636973693960e01b815260040160405180910390fd5b80600101805461058790610b58565b80601f01602080910402602001604051908101604052809291908181526020018280546105b390610b58565b80156106005780601f106105d557610100808354040283529160200191610600565b820191906000526020600020905b8154815290600101906020018083116105e357829003601f168201915b50509354929a6001600160a01b0384169a50600160a01b840464ffffffffff169950600160c81b90930461ffff169750504288119550909350505050565b60008281526002602052604090208054600160d81b900460ff1661067557604051636973693960e01b815260040160405180910390fd5b8054600160a01b900464ffffffffff1642106106a45760405163046a92d360e21b815260040160405180910390fd5b8054600160c81b900461ffff1682106106d05760405163248533d760e11b815260040160405180910390fd5b600083815260056020908152604080832033845290915290205460ff161561070b5760405163efa8276d60e01b815260040160405180910390fd5b600083815260056020908152604080832033808552908352818420805460ff191660019081179091558785526004845282852087865284529382902080549094019093555184815285917f4e7fa6b583893bc7ec081cb7b7d286eebd38ac1ae044c360d9fc9ccf8d939bce910160405180910390a3505050565b60008281526002602052604081208054600160d81b900460ff166107bc57604051636973693960e01b815260040160405180910390fd5b505060009182526005602090815260408084206001600160a01b0393909316845291905290205460ff1690565b6107f1610840565b6107fb600061086d565b565b610805610840565b6001600160a01b03811661083457604051631e4fbdf760e01b8152600060048201526024015b60405180910390fd5b61083d8161086d565b50565b6000546001600160a01b031633146107fb5760405163118cdaa760e01b815233600482015260240161082b565b600080546001600160a01b038381166001600160a01b0319831681178455604051919092169283917f8be0079c531659141344cd1fd0a4f28419497f9722a3daafe3b4186f6b6457e09190a35050565b600080604083850312156108d057600080fd5b50508035926020909101359150565b6000806000806000606086880312156108f757600080fd5b853567ffffffffffffffff8082111561090f57600080fd5b818801915088601f83011261092357600080fd5b81358181111561093257600080fd5b89602082850101111561094457600080fd5b60209283019750955090870135908082111561095f57600080fd5b818801915088601f83011261097357600080fd5b81358181111561098257600080fd5b8960208260051b850101111561099757600080fd5b96999598505060200195604001359392505050565b6000602082840312156109be57600080fd5b5035919050565b6000815180845260005b818110156109eb576020818501810151868301820152016109cf565b506000602082860101526020601f19601f83011685010191505092915050565b6000602080830181845280855180835260408601915060408160051b870101925083870160005b82811015610a6057603f19888603018452610a4e8583516109c5565b94509285019290850190600101610a32565b5092979650505050505050565b60a081526000610a8060a08301886109c5565b6001600160a01b0396909616602083015250604081019390935260608301919091521515608090910152919050565b80356001600160a01b0381168114610ac657600080fd5b919050565b60008060408385031215610ade57600080fd5b82359150610aee60208401610aaf565b90509250929050565b600060208284031215610b0957600080fd5b610b1282610aaf565b9392505050565b634e487b7160e01b600052601160045260246000fd5b8082018082111561026257610262610b19565b634e487b7160e01b600052604160045260246000fd5b600181811c90821680610b6c57607f821691505b602082108103610b8c57634e487b7160e01b600052602260045260246000fd5b50919050565b601f821115610bdc57600081815260208120601f850160051c81016020861015610bb95750805b601f850160051c820191505b81811015610bd857828155600101610bc5565b5050505b505050565b67ffffffffffffffff831115610bf957610bf9610b42565b610c0d83610c078354610b58565b83610b92565b6000601f841160018114610c415760008515610c295750838201355b600019600387901b1c1916600186901b178355610c9b565b600083815260209020601f19861690835b82811015610c725786850135825560209485019460019092019101610c52565b5086821015610c8f5760001960f88860031b161c19848701351681555b505060018560011b0183555b5050505050565b634e487b7160e01b600052603260045260246000fd5b6000808335601e19843603018112610ccf57600080fd5b83018035915067ffffffffffffffff821115610cea57600080fd5b602001915036819003821315610cff57600080fd5b9250929050565b600060018201610d1857610d18610b19565b5060010190565b606081528360608201528385608083013760006080858301015260006080601f19601f87011683010190508360208301528260408301529594505050505056fea2646970667358221220740e4b42e240838cfa108a91028a38163d2aa226ef3987f90a2c6e783a6187b264736f6c63430008140033",
  "devdoc": {
    "details": "- SOLO el owner (deployer) puede crear votaciones - Cualquier usuario puede votar UNA sola vez por votación - Opciones dinámicas (strings) - Cierre automático por tiempo (no requiere finalizar on-chain) - Eventos para histórico (timeline off-chain) - Incluye bloqueDespliegue (immutable) para reconstruir logs desde el bloque real de despliegue Requisitos de interfaz (UI): - contadorVotaciones() - owner() - obtenerVotacion(id) - obtenerOpciones(id) - obtenerVotos(id, opcion) - yaVoto(id, address) Eventos (deben coincidir EXACTAMENTE): - VotacionCreada(idVotacion, creador, titulo, fechaFin, cantidadOpciones) - VotoEmitido(idVotacion, votante, idOpcion)",
    "errors": {
      "OwnableInvalidOwner(address)": [
        {
          "details": "The owner is not a valid owner account. (eg. `address(0)`)"
        }
      ],
      "OwnableUnauthorizedAccount(address)": [
        {
          "details": "The caller account is not authorized to perform an operation."
        }
      ]
    },
    "kind": "dev",
    "methods": {
      "owner()": {
        "details": "Returns the address of the current owner."
      },
      "renounceOwnership()": {
        "details": "Leaves the contract without owner. It will not be possible to call `onlyOwner` functions. Can only be called by the current owner. NOTE: Renouncing ownership will leave the contract without an owner, thereby disabling any functionality that is only available to the owner."
      },
      "transferOwnership(address)": {
        "details": "Transfers ownership of the contract to a new account (`newOwner`). Can only be called by the current owner."
      }
    },
    "title": "VotacionUniversitaria",
    "version": 1
  },
  "userdoc": {
    "kind": "user",
    "methods": {},
    "notice": "dApp: Votación Universitaria (educativa)",
    "version": 1
  },
  "storageLayout": {
    "storage": [
      {
        "astId": 8,
        "contract": "contracts/VotacionUniversitaria.sol:VotacionUniversitaria",
        "label": "_owner",
        "offset": 0,
        "slot": "0",
        "type": "t_address"
      },
      {
        "astId": 226,
        "contract": "contracts/VotacionUniversitaria.sol:VotacionUniversitaria",
        "label": "contadorVotaciones",
        "offset": 0,
        "slot": "1",
        "type": "t_uint256"
      },
      {
        "astId": 231,
        "contract": "contracts/VotacionUniversitaria.sol:VotacionUniversitaria",
        "label": "votaciones",
        "offset": 0,
        "slot": "2",
        "type": "t_mapping(t_uint256,t_struct(Votacion)224_storage)"
      },
      {
        "astId": 236,
        "contract": "contracts/VotacionUniversitaria.sol:VotacionUniversitaria",
        "label": "opcionesPorVotacion",
        "offset": 0,
        "slot": "3",
        "type": "t_mapping(t_uint256,t_array(t_string_storage)dyn_storage)"
      },
      {
        "astId": 242,
        "contract": "contracts/VotacionUniversitaria.sol:VotacionUniversitaria",
        "label": "votosPorOpcion",
        "offset": 0,
        "slot": "4",
        "type": "t_mapping(t_uint256,t_mapping(t_uint256,t_uint256))"
      },
      {
        "astId": 248,
        "contract": "contracts/VotacionUniversitaria.sol:VotacionUniversitaria",
        "label": "yaVotoPorVotacion",
        "offset": 0,
        "slot": "5",
        "type": "t_mapping(t_uint256,t_mapping(t_address,t_bool))"
      }
    ],
    "types": {
      "t_address": {
        "encoding": "inplace",
        "label": "address",
        "numberOfBytes": "20"
      },
      "t_array(t_string_storage)dyn_storage": {
        "base": "t_string_storage",
        "encoding": "dynamic_array",
        "label": "string[]",
        "numberOfBytes": "32"
      },
      "t_bool": {
        "encoding": "inplace",
        "label": "bool",
        "numberOfBytes": "1"
      },
      "t_mapping(t_address,t_bool)": {
        "encoding": "mapping",
        "key": "t_address",
        "label": "mapping(address => bool)",
        "numberOfBytes": "32",
        "value": "t_bool"
      },
      "t_mapping(t_uint256,t_array(t_string_storage)dyn_storage)": {
        "encoding": "mapping",
        "key": "t_uint256",
        "label": "mapping(uint256 => string[])",
        "numberOfBytes": "32",
        "value": "t_array(t_string_storage)dyn_storage"
      },
      "t_mapping(t_uint256,t_mapping(t_address,t_bool))": {
        "encoding": "mapping",
        "key": "t_uint256",
        "label": "mapping(uint256 => mapping(address => bool))",
        "numberOfBytes": "32",
        "value": "t_mapping(t_address,t_bool)"
      },
      "t_mapping(t_uint256,t_mapping(t_uint256,t_uint256))": {
        "encoding": "mapping",
        "key": "t_uint256",
        "label": "mapping(uint256 => mapping(uint256 => uint256))",
        "numberOfBytes": "32",
        "value": "t_mapping(t_uint256,t_uint256)"
      },
      "t_mapping(t_uint256,t_struct(Votacion)224_storage)": {
        "encoding": "mapping",
        "key": "t_uint256",
        "label": "mapping(uint256 => struct VotacionUniversitaria.Votacion)",
        "numberOfBytes": "32",
        "value": "t_struct(Votacion)224_storage"
      },
      "t_mapping(t_uint256,t_uint256)": {
        "encoding": "mapping",
        "key": "t_uint256",
        "label": "mapping(uint256 => uint256)",
        "numberOfBytes": "32",
        "value": "t_uint256"
      },
      "t_string_storage": {
        "encoding": "bytes",
        "label": "string",
        "numberOfBytes": "32"
      },
      "t_struct(Votacion)224_storage": {
        "encoding": "inplace",
        "label": "struct VotacionUniversitaria.Votacion",
        "members": [
          {
            "astId": 215,
            "contract": "contracts/VotacionUniversitaria.sol:VotacionUniversitaria",
            "label": "creador",
            "offset": 0,
            "slot": "0",
            "type": "t_address"
          },
          {
            "astId": 217,
            "contract": "contracts/VotacionUniversitaria.sol:VotacionUniversitaria",
            "label": "fechaFin",
            "offset": 20,
            "slot": "0",
            "type": "t_uint40"
          },
          {
            "astId": 219,
            "contract": "contracts/VotacionUniversitaria.sol:VotacionUniversitaria",
            "label": "cantidadOpciones",
            "offset": 25,
            "slot": "0",
            "type": "t_uint16"
          },
          {
            "astId": 221,
            "contract": "contracts/VotacionUniversitaria.sol:VotacionUniversitaria",
            "label": "existe",
            "offset": 27,
            "slot": "0",
            "type": "t_bool"
          },
          {
            "astId": 223,
            "contract": "contracts/VotacionUniversitaria.sol:VotacionUniversitaria",
            "label": "titulo",
            "offset": 0,
            "slot": "1",
            "type": "t_string_storage"
          }
        ],
        "numberOfBytes": "64"
      },
      "t_uint16": {
        "encoding": "inplace",
        "label": "uint16",
        "numberOfBytes": "2"
      },
      "t_uint256": {
        "encoding": "inplace",
        "label": "uint256",
        "numberOfBytes": "32"
      },
      "t_uint40": {
        "encoding": "inplace",
        "label": "uint40",
        "numberOfBytes": "5"
      }
    }
  }
}